{
  "_format": "hh-sol-artifact-1",
  "contractName": "Dappazon",
  "sourceName": "contracts/Dappazon.sol",
  "abi": [
    {
      "anonymous": false,
      "inputs": [
        {
          "indexed": false,
          "internalType": "address",
          "name": "buyer",
          "type": "address"
        },
        {
          "indexed": false,
          "internalType": "uint256",
          "name": "itemId",
          "type": "uint256"
        },
        {
          "indexed": false,
          "internalType": "uint256",
          "name": "quantity",
          "type": "uint256"
        }
      ],
      "name": "Buy",
      "type": "event"
    },
    {
      "anonymous": false,
      "inputs": [
        {
          "indexed": false,
          "internalType": "address",
          "name": "seller",
          "type": "address"
        },
        {
          "indexed": false,
          "internalType": "uint256",
          "name": "amount",
          "type": "uint256"
        }
      ],
      "name": "PaymentReceived",
      "type": "event"
    },
    {
      "anonymous": false,
      "inputs": [
        {
          "indexed": false,
          "internalType": "uint256",
          "name": "id",
          "type": "uint256"
        },
        {
          "indexed": false,
          "internalType": "string",
          "name": "name",
          "type": "string"
        },
        {
          "indexed": false,
          "internalType": "address",
          "name": "seller",
          "type": "address"
        }
      ],
      "name": "ProductAdded",
      "type": "event"
    },
    {
      "inputs": [
        {
          "internalType": "string",
          "name": "_name",
          "type": "string"
        },
        {
          "internalType": "string",
          "name": "_category",
          "type": "string"
        },
        {
          "internalType": "string",
          "name": "_image",
          "type": "string"
        },
        {
          "internalType": "uint256",
          "name": "_price",
          "type": "uint256"
        },
        {
          "internalType": "uint256",
          "name": "_rating",
          "type": "uint256"
        },
        {
          "internalType": "uint256",
          "name": "_stock",
          "type": "uint256"
        }
      ],
      "name": "addProduct",
      "outputs": [],
      "stateMutability": "nonpayable",
      "type": "function"
    },
    {
      "inputs": [
        {
          "internalType": "uint256",
          "name": "_itemId",
          "type": "uint256"
        },
        {
          "internalType": "uint256",
          "name": "_quantity",
          "type": "uint256"
        }
      ],
      "name": "buy",
      "outputs": [],
      "stateMutability": "payable",
      "type": "function"
    },
    {
      "inputs": [],
      "name": "itemCount",
      "outputs": [
        {
          "internalType": "uint256",
          "name": "",
          "type": "uint256"
        }
      ],
      "stateMutability": "view",
      "type": "function"
    },
    {
      "inputs": [
        {
          "internalType": "uint256",
          "name": "",
          "type": "uint256"
        }
      ],
      "name": "items",
      "outputs": [
        {
          "internalType": "uint256",
          "name": "id",
          "type": "uint256"
        },
        {
          "internalType": "string",
          "name": "name",
          "type": "string"
        },
        {
          "internalType": "string",
          "name": "category",
          "type": "string"
        },
        {
          "internalType": "string",
          "name": "image",
          "type": "string"
        },
        {
          "internalType": "uint256",
          "name": "price",
          "type": "uint256"
        },
        {
          "internalType": "uint256",
          "name": "rating",
          "type": "uint256"
        },
        {
          "internalType": "uint256",
          "name": "stock",
          "type": "uint256"
        },
        {
          "internalType": "address",
          "name": "seller",
          "type": "address"
        }
      ],
      "stateMutability": "view",
      "type": "function"
    }
  ],
  "bytecode": "0x608060405234801561001057600080fd5b50611018806100206000396000f3fe60806040526004361061003f5760003560e01c80636bfb0d0114610044578063744e97331461006f578063bfb231d214610098578063d6febde8146100dc575b600080fd5b34801561005057600080fd5b506100596100f8565b604051610066919061065f565b60405180910390f35b34801561007b57600080fd5b5061009660048036038101906100919190610800565b6100fe565b005b3480156100a457600080fd5b506100bf60048036038101906100ba91906108e1565b610275565b6040516100d39897969594939291906109ce565b60405180910390f35b6100f660048036038101906100f19190610a61565b610475565b005b60015481565b6001600081548092919061011190610ad0565b919050555060405180610100016040528060015481526020018781526020018681526020018581526020018481526020018381526020018281526020013373ffffffffffffffffffffffffffffffffffffffff16815250600080600154815260200190815260200160002060008201518160000155602082015181600101908161019b9190610d24565b5060408201518160020190816101b19190610d24565b5060608201518160030190816101c79190610d24565b506080820151816004015560a0820151816005015560c0820151816006015560e08201518160070160006101000a81548173ffffffffffffffffffffffffffffffffffffffff021916908373ffffffffffffffffffffffffffffffffffffffff1602179055509050507f8193aac6f424277fc758106db15a98f50eaf850bfd0b9178fbfa308e153b0495600154873360405161026593929190610df6565b60405180910390a1505050505050565b600060205280600052604060002060009150905080600001549080600101805461029e90610b47565b80601f01602080910402602001604051908101604052809291908181526020018280546102ca90610b47565b80156103175780601f106102ec57610100808354040283529160200191610317565b820191906000526020600020905b8154815290600101906020018083116102fa57829003601f168201915b50505050509080600201805461032c90610b47565b80601f016020809104026020016040519081016040528092919081815260200182805461035890610b47565b80156103a55780601f1061037a576101008083540402835291602001916103a5565b820191906000526020600020905b81548152906001019060200180831161038857829003601f168201915b5050505050908060030180546103ba90610b47565b80601f01602080910402602001604051908101604052809291908181526020018280546103e690610b47565b80156104335780601f1061040857610100808354040283529160200191610433565b820191906000526020600020905b81548152906001019060200180831161041657829003601f168201915b5050505050908060040154908060050154908060060154908060070160009054906101000a900473ffffffffffffffffffffffffffffffffffffffff16905088565b6000806000848152602001908152602001600020905081816006015410156104d2576040517f08c379a00000000000000000000000000000000000000000000000000000000081526004016104c990610e80565b60405180910390fd5b8181600401546104e29190610ea0565b3414610523576040517f08c379a000000000000000000000000000000000000000000000000000000000815260040161051a90610f2e565b60405180910390fd5b8060070160009054906101000a900473ffffffffffffffffffffffffffffffffffffffff1673ffffffffffffffffffffffffffffffffffffffff166108fc349081150290604051600060405180830381858888f1935050505015801561058d573d6000803e3d6000fd5b507f6ef95f06320e7a25a04a175ca677b7052bdd97131872c2192525a629f51be7708160070160009054906101000a900473ffffffffffffffffffffffffffffffffffffffff16346040516105e3929190610f4e565b60405180910390a1818160060160008282546105ff9190610f77565b925050819055507f1cbc5ab135991bd2b6a4b034a04aa2aa086dac1371cb9b16b8b5e2ed6b036bed33848460405161063993929190610fab565b60405180910390a1505050565b6000819050919050565b61065981610646565b82525050565b60006020820190506106746000830184610650565b92915050565b6000604051905090565b600080fd5b600080fd5b600080fd5b600080fd5b6000601f19601f8301169050919050565b7f4e487b7100000000000000000000000000000000000000000000000000000000600052604160045260246000fd5b6106e182610698565b810181811067ffffffffffffffff82111715610700576106ff6106a9565b5b80604052505050565b600061071361067a565b905061071f82826106d8565b919050565b600067ffffffffffffffff82111561073f5761073e6106a9565b5b61074882610698565b9050602081019050919050565b82818337600083830152505050565b600061077761077284610724565b610709565b90508281526020810184848401111561079357610792610693565b5b61079e848285610755565b509392505050565b600082601f8301126107bb576107ba61068e565b5b81356107cb848260208601610764565b91505092915050565b6107dd81610646565b81146107e857600080fd5b50565b6000813590506107fa816107d4565b92915050565b60008060008060008060c0878903121561081d5761081c610684565b5b600087013567ffffffffffffffff81111561083b5761083a610689565b5b61084789828a016107a6565b965050602087013567ffffffffffffffff81111561086857610867610689565b5b61087489828a016107a6565b955050604087013567ffffffffffffffff81111561089557610894610689565b5b6108a189828a016107a6565b94505060606108b289828a016107eb565b93505060806108c389828a016107eb565b92505060a06108d489828a016107eb565b9150509295509295509295565b6000602082840312156108f7576108f6610684565b5b6000610905848285016107eb565b91505092915050565b600081519050919050565b600082825260208201905092915050565b60005b8381101561094857808201518184015260208101905061092d565b60008484015250505050565b600061095f8261090e565b6109698185610919565b935061097981856020860161092a565b61098281610698565b840191505092915050565b600073ffffffffffffffffffffffffffffffffffffffff82169050919050565b60006109b88261098d565b9050919050565b6109c8816109ad565b82525050565b6000610100820190506109e4600083018b610650565b81810360208301526109f6818a610954565b90508181036040830152610a0a8189610954565b90508181036060830152610a1e8188610954565b9050610a2d6080830187610650565b610a3a60a0830186610650565b610a4760c0830185610650565b610a5460e08301846109bf565b9998505050505050505050565b60008060408385031215610a7857610a77610684565b5b6000610a86858286016107eb565b9250506020610a97858286016107eb565b9150509250929050565b7f4e487b7100000000000000000000000000000000000000000000000000000000600052601160045260246000fd5b6000610adb82610646565b91507fffffffffffffffffffffffffffffffffffffffffffffffffffffffffffffffff8203610b0d57610b0c610aa1565b5b600182019050919050565b7f4e487b7100000000000000000000000000000000000000000000000000000000600052602260045260246000fd5b60006002820490506001821680610b5f57607f821691505b602082108103610b7257610b71610b18565b5b50919050565b60008190508160005260206000209050919050565b60006020601f8301049050919050565b600082821b905092915050565b600060088302610bda7fffffffffffffffffffffffffffffffffffffffffffffffffffffffffffffffff82610b9d565b610be48683610b9d565b95508019841693508086168417925050509392505050565b6000819050919050565b6000610c21610c1c610c1784610646565b610bfc565b610646565b9050919050565b6000819050919050565b610c3b83610c06565b610c4f610c4782610c28565b848454610baa565b825550505050565b600090565b610c64610c57565b610c6f818484610c32565b505050565b5b81811015610c9357610c88600082610c5c565b600181019050610c75565b5050565b601f821115610cd857610ca981610b78565b610cb284610b8d565b81016020851015610cc1578190505b610cd5610ccd85610b8d565b830182610c74565b50505b505050565b600082821c905092915050565b6000610cfb60001984600802610cdd565b1980831691505092915050565b6000610d148383610cea565b9150826002028217905092915050565b610d2d8261090e565b67ffffffffffffffff811115610d4657610d456106a9565b5b610d508254610b47565b610d5b828285610c97565b600060209050601f831160018114610d8e5760008415610d7c578287015190505b610d868582610d08565b865550610dee565b601f198416610d9c86610b78565b60005b82811015610dc457848901518255600182019150602085019450602081019050610d9f565b86831015610de15784890151610ddd601f891682610cea565b8355505b6001600288020188555050505b505050505050565b6000606082019050610e0b6000830186610650565b8181036020830152610e1d8185610954565b9050610e2c60408301846109bf565b949350505050565b7f4e6f7420656e6f7567682073746f636b00000000000000000000000000000000600082015250565b6000610e6a601083610919565b9150610e7582610e34565b602082019050919050565b60006020820190508181036000830152610e9981610e5d565b9050919050565b6000610eab82610646565b9150610eb683610646565b9250828202610ec481610646565b91508282048414831517610edb57610eda610aa1565b5b5092915050565b7f496e636f7272656374207061796d656e74000000000000000000000000000000600082015250565b6000610f18601183610919565b9150610f2382610ee2565b602082019050919050565b60006020820190508181036000830152610f4781610f0b565b9050919050565b6000604082019050610f6360008301856109bf565b610f706020830184610650565b9392505050565b6000610f8282610646565b9150610f8d83610646565b9250828203905081811115610fa557610fa4610aa1565b5b92915050565b6000606082019050610fc060008301866109bf565b610fcd6020830185610650565b610fda6040830184610650565b94935050505056fea2646970667358221220ea331ba8be2ee9b1bdd71f52446550dea5c5c3a266fbe575549deabb8aafeabe64736f6c63430008110033",
  "linkReferences": {},
  "deployedLinkReferences": {}
}